{
  "contractName": "InvoiceNFT",
  "abi": [
    {
      "inputs": [],
      "stateMutability": "nonpayable",
      "type": "constructor"
    },
    {
      "anonymous": false,
      "inputs": [
        {
          "indexed": true,
          "internalType": "address",
          "name": "owner",
          "type": "address"
        },
        {
          "indexed": true,
          "internalType": "address",
          "name": "approved",
          "type": "address"
        },
        {
          "indexed": true,
          "internalType": "uint256",
          "name": "tokenId",
          "type": "uint256"
        }
      ],
      "name": "Approval",
      "type": "event"
    },
    {
      "anonymous": false,
      "inputs": [
        {
          "indexed": true,
          "internalType": "address",
          "name": "owner",
          "type": "address"
        },
        {
          "indexed": true,
          "internalType": "address",
          "name": "operator",
          "type": "address"
        },
        {
          "indexed": false,
          "internalType": "bool",
          "name": "approved",
          "type": "bool"
        }
      ],
      "name": "ApprovalForAll",
      "type": "event"
    },
    {
      "anonymous": false,
      "inputs": [
        {
          "indexed": true,
          "internalType": "address",
          "name": "previousOwner",
          "type": "address"
        },
        {
          "indexed": true,
          "internalType": "address",
          "name": "newOwner",
          "type": "address"
        }
      ],
      "name": "OwnershipTransferred",
      "type": "event"
    },
    {
      "anonymous": false,
      "inputs": [
        {
          "indexed": true,
          "internalType": "address",
          "name": "from",
          "type": "address"
        },
        {
          "indexed": true,
          "internalType": "address",
          "name": "to",
          "type": "address"
        },
        {
          "indexed": true,
          "internalType": "uint256",
          "name": "tokenId",
          "type": "uint256"
        }
      ],
      "name": "Transfer",
      "type": "event"
    },
    {
      "inputs": [],
      "name": "NumAddresses",
      "outputs": [
        {
          "internalType": "uint256",
          "name": "",
          "type": "uint256"
        }
      ],
      "stateMutability": "view",
      "type": "function",
      "constant": true
    },
    {
      "inputs": [
        {
          "internalType": "address",
          "name": "owner",
          "type": "address"
        }
      ],
      "name": "balanceOf",
      "outputs": [
        {
          "internalType": "uint256",
          "name": "",
          "type": "uint256"
        }
      ],
      "stateMutability": "view",
      "type": "function",
      "constant": true
    },
    {
      "inputs": [],
      "name": "baseURI",
      "outputs": [
        {
          "internalType": "string",
          "name": "",
          "type": "string"
        }
      ],
      "stateMutability": "view",
      "type": "function",
      "constant": true
    },
    {
      "inputs": [
        {
          "internalType": "uint256",
          "name": "",
          "type": "uint256"
        }
      ],
      "name": "exists",
      "outputs": [
        {
          "internalType": "bool",
          "name": "",
          "type": "bool"
        }
      ],
      "stateMutability": "view",
      "type": "function",
      "constant": true
    },
    {
      "inputs": [
        {
          "internalType": "uint256",
          "name": "tokenId",
          "type": "uint256"
        }
      ],
      "name": "getApproved",
      "outputs": [
        {
          "internalType": "address",
          "name": "",
          "type": "address"
        }
      ],
      "stateMutability": "view",
      "type": "function",
      "constant": true
    },
    {
      "inputs": [
        {
          "internalType": "address",
          "name": "owner",
          "type": "address"
        },
        {
          "internalType": "address",
          "name": "operator",
          "type": "address"
        }
      ],
      "name": "isApprovedForAll",
      "outputs": [
        {
          "internalType": "bool",
          "name": "",
          "type": "bool"
        }
      ],
      "stateMutability": "view",
      "type": "function",
      "constant": true
    },
    {
      "inputs": [],
      "name": "name",
      "outputs": [
        {
          "internalType": "string",
          "name": "",
          "type": "string"
        }
      ],
      "stateMutability": "view",
      "type": "function",
      "constant": true
    },
    {
      "inputs": [],
      "name": "operator",
      "outputs": [
        {
          "internalType": "address",
          "name": "",
          "type": "address"
        }
      ],
      "stateMutability": "view",
      "type": "function",
      "constant": true
    },
    {
      "inputs": [],
      "name": "owner",
      "outputs": [
        {
          "internalType": "address",
          "name": "",
          "type": "address"
        }
      ],
      "stateMutability": "view",
      "type": "function",
      "constant": true
    },
    {
      "inputs": [
        {
          "internalType": "uint256",
          "name": "tokenId",
          "type": "uint256"
        }
      ],
      "name": "ownerOf",
      "outputs": [
        {
          "internalType": "address",
          "name": "",
          "type": "address"
        }
      ],
      "stateMutability": "view",
      "type": "function",
      "constant": true
    },
    {
      "inputs": [],
      "name": "renounceOwnership",
      "outputs": [],
      "stateMutability": "nonpayable",
      "type": "function"
    },
    {
      "inputs": [
        {
          "internalType": "address",
          "name": "from",
          "type": "address"
        },
        {
          "internalType": "address",
          "name": "to",
          "type": "address"
        },
        {
          "internalType": "uint256",
          "name": "tokenId",
          "type": "uint256"
        }
      ],
      "name": "safeTransferFrom",
      "outputs": [],
      "stateMutability": "nonpayable",
      "type": "function"
    },
    {
      "inputs": [
        {
          "internalType": "address",
          "name": "from",
          "type": "address"
        },
        {
          "internalType": "address",
          "name": "to",
          "type": "address"
        },
        {
          "internalType": "uint256",
          "name": "tokenId",
          "type": "uint256"
        },
        {
          "internalType": "bytes",
          "name": "_data",
          "type": "bytes"
        }
      ],
      "name": "safeTransferFrom",
      "outputs": [],
      "stateMutability": "nonpayable",
      "type": "function"
    },
    {
      "inputs": [
        {
          "internalType": "address",
          "name": "operator",
          "type": "address"
        },
        {
          "internalType": "bool",
          "name": "approved",
          "type": "bool"
        }
      ],
      "name": "setApprovalForAll",
      "outputs": [],
      "stateMutability": "nonpayable",
      "type": "function"
    },
    {
      "inputs": [],
      "name": "stakingAddress",
      "outputs": [
        {
          "internalType": "address",
          "name": "",
          "type": "address"
        }
      ],
      "stateMutability": "view",
      "type": "function",
      "constant": true
    },
    {
      "inputs": [
        {
          "internalType": "bytes4",
          "name": "interfaceId",
          "type": "bytes4"
        }
      ],
      "name": "supportsInterface",
      "outputs": [
        {
          "internalType": "bool",
          "name": "",
          "type": "bool"
        }
      ],
      "stateMutability": "view",
      "type": "function",
      "constant": true
    },
    {
      "inputs": [],
      "name": "symbol",
      "outputs": [
        {
          "internalType": "string",
          "name": "",
          "type": "string"
        }
      ],
      "stateMutability": "view",
      "type": "function",
      "constant": true
    },
    {
      "inputs": [
        {
          "internalType": "uint256",
          "name": "",
          "type": "uint256"
        }
      ],
      "name": "tokenIds",
      "outputs": [
        {
          "internalType": "uint256",
          "name": "",
          "type": "uint256"
        }
      ],
      "stateMutability": "view",
      "type": "function",
      "constant": true
    },
    {
      "inputs": [
        {
          "internalType": "uint256",
          "name": "tokenId",
          "type": "uint256"
        }
      ],
      "name": "tokenURI",
      "outputs": [
        {
          "internalType": "string",
          "name": "",
          "type": "string"
        }
      ],
      "stateMutability": "view",
      "type": "function",
      "constant": true
    },
    {
      "inputs": [
        {
          "internalType": "address",
          "name": "from",
          "type": "address"
        },
        {
          "internalType": "address",
          "name": "to",
          "type": "address"
        },
        {
          "internalType": "uint256",
          "name": "tokenId",
          "type": "uint256"
        }
      ],
      "name": "transferFrom",
      "outputs": [],
      "stateMutability": "nonpayable",
      "type": "function"
    },
    {
      "inputs": [
        {
          "internalType": "address",
          "name": "newOwner",
          "type": "address"
        }
      ],
      "name": "transferOwnership",
      "outputs": [],
      "stateMutability": "nonpayable",
      "type": "function"
    },
    {
      "inputs": [
        {
          "internalType": "string",
          "name": "_baseURI",
          "type": "string"
        }
      ],
      "name": "setBaseURI",
      "outputs": [],
      "stateMutability": "nonpayable",
      "type": "function"
    },
    {
      "inputs": [
        {
          "internalType": "string",
          "name": "_tokenURI",
          "type": "string"
        },
        {
          "internalType": "uint256",
          "name": "_LoanAmount",
          "type": "uint256"
        },
        {
          "internalType": "uint256",
          "name": "_InvoiceValue",
          "type": "uint256"
        },
        {
          "internalType": "uint256",
          "name": "_LoanPeriod",
          "type": "uint256"
        }
      ],
      "name": "mint",
      "outputs": [
        {
          "internalType": "uint256",
          "name": "",
          "type": "uint256"
        }
      ],
      "stateMutability": "nonpayable",
      "type": "function"
    },
    {
      "inputs": [
        {
          "internalType": "uint256",
          "name": "_tokenId",
          "type": "uint256"
        }
      ],
      "name": "viewInvoiceById",
      "outputs": [
        {
          "components": [
            {
              "internalType": "address",
              "name": "owner",
              "type": "address"
            },
            {
              "internalType": "string",
              "name": "tokenURI",
              "type": "string"
            },
            {
              "internalType": "uint256",
              "name": "tokenId",
              "type": "uint256"
            },
            {
              "internalType": "uint256",
              "name": "InvoiceValue",
              "type": "uint256"
            },
            {
              "internalType": "uint256",
              "name": "LoanAmount",
              "type": "uint256"
            },
            {
              "internalType": "uint256",
              "name": "LoanPeriod",
              "type": "uint256"
            }
          ],
          "internalType": "struct InvoiceNFT.Invoice",
          "name": "",
          "type": "tuple"
        }
      ],
      "stateMutability": "view",
      "type": "function",
      "constant": true
    },
    {
      "inputs": [],
      "name": "getAllInvoices",
      "outputs": [
        {
          "components": [
            {
              "internalType": "address",
              "name": "owner",
              "type": "address"
            },
            {
              "internalType": "string",
              "name": "tokenURI",
              "type": "string"
            },
            {
              "internalType": "uint256",
              "name": "tokenId",
              "type": "uint256"
            },
            {
              "internalType": "uint256",
              "name": "InvoiceValue",
              "type": "uint256"
            },
            {
              "internalType": "uint256",
              "name": "LoanAmount",
              "type": "uint256"
            },
            {
              "internalType": "uint256",
              "name": "LoanPeriod",
              "type": "uint256"
            }
          ],
          "internalType": "struct InvoiceNFT.Invoice[]",
          "name": "",
          "type": "tuple[]"
        }
      ],
      "stateMutability": "view",
      "type": "function",
      "constant": true
    },
    {
      "inputs": [
        {
          "internalType": "address",
          "name": "to",
          "type": "address"
        },
        {
          "internalType": "uint256",
          "name": "tokenId",
          "type": "uint256"
        }
      ],
      "name": "approve",
      "outputs": [],
      "stateMutability": "nonpayable",
      "type": "function"
    },
    {
      "inputs": [
        {
          "internalType": "address",
          "name": "_operator",
          "type": "address"
        }
      ],
      "name": "setOperator",
      "outputs": [
        {
          "internalType": "bool",
          "name": "",
          "type": "bool"
        }
      ],
      "stateMutability": "nonpayable",
      "type": "function"
    },
    {
      "inputs": [
        {
          "internalType": "address",
          "name": "_user",
          "type": "address"
        }
      ],
      "name": "Addwhitelist",
      "outputs": [],
      "stateMutability": "nonpayable",
      "type": "function"
    },
    {
      "inputs": [
        {
          "internalType": "address",
          "name": "_user",
          "type": "address"
        }
      ],
      "name": "hasWhitelisted",
      "outputs": [
        {
          "internalType": "bool",
          "name": "",
          "type": "bool"
        }
      ],
      "stateMutability": "view",
      "type": "function",
      "constant": true
    },
    {
      "inputs": [
        {
          "internalType": "address",
          "name": "_user",
          "type": "address"
        }
      ],
      "name": "deleteWhitlistedUser",
      "outputs": [],
      "stateMutability": "nonpayable",
      "type": "function"
    }
  ],
  "bytecode": "0x60806040523480156200001157600080fd5b506040518060400160405280600781526020017f496e766f696365000000000000000000000000000000000000000000000000008152506040518060400160405280600481526020017f494e565400000000000000000000000000000000000000000000000000000000815250620000966301ffc9a760e01b620001b160201b60201c565b8160019080519060200190620000ae92919062000291565b508060029080519060200190620000c792919062000291565b50620000e06380ac58cd60e01b620001b160201b60201c565b620000f8635b5e139f60e01b620001b160201b60201c565b505060006200010c6200028960201b60201c565b905080600960006101000a81548173ffffffffffffffffffffffffffffffffffffffff021916908373ffffffffffffffffffffffffffffffffffffffff1602179055508073ffffffffffffffffffffffffffffffffffffffff16600073ffffffffffffffffffffffffffffffffffffffff167f8be0079c531659141344cd1fd0a4f28419497f9722a3daafe3b4186f6b6457e060405160405180910390a3506200041b565b63ffffffff60e01b817bffffffffffffffffffffffffffffffffffffffffffffffffffffffff191614156200021d576040517f08c379a0000000000000000000000000000000000000000000000000000000008152600401620002149062000383565b60405180910390fd5b6001600080837bffffffffffffffffffffffffffffffffffffffffffffffffffffffff19167bffffffffffffffffffffffffffffffffffffffffffffffffffffffff1916815260200190815260200160002060006101000a81548160ff02191690831515021790555050565b600033905090565b8280546200029f90620003b6565b90600052602060002090601f016020900481019282620002c357600085556200030f565b82601f10620002de57805160ff19168380011785556200030f565b828001600101855582156200030f579182015b828111156200030e578251825591602001919060010190620002f1565b5b5090506200031e919062000322565b5090565b5b808211156200033d57600081600090555060010162000323565b5090565b600062000350601c83620003a5565b91507f4552433136353a20696e76616c696420696e74657266616365206964000000006000830152602082019050919050565b600060208201905081810360008301526200039e8162000341565b9050919050565b600082825260208201905092915050565b60006002820490506001821680620003cf57607f821691505b60208210811415620003e657620003e5620003ec565b5b50919050565b7f4e487b7100000000000000000000000000000000000000000000000000000000600052602260045260246000fd5b614471806200042b6000396000f3fe608060405234801561001057600080fd5b50600436106101d95760003560e01c806370a0823111610104578063b88d4fde116100a2578063e7095f2d11610071578063e7095f2d1461057a578063e97556de146105aa578063e985e9c5146105c8578063f2fde38b146105f8576101d9565b8063b88d4fde146104e0578063c87b56dd146104fc578063d58778d61461052c578063d7b4be241461055c576101d9565b80638da5cb5b116100de5780638da5cb5b1461045857806395d89b4114610476578063a22cb46514610494578063b3ab15fb146104b0576101d9565b806370a08231146103ee578063715018a61461041e578063736a6a7c14610428576101d9565b806323b872dd1161017c578063570bdad61161014b578063570bdad614610364578063570ca735146103825780636352211e146103a05780636c0360eb146103d0576101d9565b806323b872dd146102e057806342842e0e146102fc5780634f558e791461031857806355f804b314610348576101d9565b806306fdde03116101b857806306fdde031461025a578063081812fc14610278578063095ea7b3146102a8578063147e0f2d146102c4576101d9565b80627c201b146101de57806301ffc9a7146101fa578063027a22551461022a575b600080fd5b6101f860048036038101906101f39190612d3e565b610614565b005b610214600480360381019061020f9190612ee5565b610805565b6040516102219190613bb9565b60405180910390f35b610244600480360381019061023f9190612f78565b6108e7565b6040516102519190613f38565b60405180910390f35b610262610ae3565b60405161026f9190613bd4565b60405180910390f35b610292600480360381019061028d9190612ff3565b610b75565b60405161029f9190613b30565b60405180910390f35b6102c260048036038101906102bd9190612ea9565b610bfa565b005b6102de60048036038101906102d99190612d3e565b610d12565b005b6102fa60048036038101906102f59190612da3565b610e94565b005b61031660048036038101906103119190612da3565b610ef4565b005b610332600480360381019061032d9190612ff3565b610f14565b60405161033f9190613bb9565b60405180910390f35b610362600480360381019061035d9190612f37565b610f34565b005b61036c610fbc565b6040516103799190613b97565b60405180910390f35b61038a61112b565b6040516103979190613b30565b60405180910390f35b6103ba60048036038101906103b59190612ff3565b611151565b6040516103c79190613b30565b60405180910390f35b6103d8611203565b6040516103e59190613bd4565b60405180910390f35b61040860048036038101906104039190612d3e565b611295565b6040516104159190613f38565b60405180910390f35b61042661134d565b005b610442600480360381019061043d9190612d3e565b61148a565b60405161044f9190613bb9565b60405180910390f35b6104606114e0565b60405161046d9190613b30565b60405180910390f35b61047e61150a565b60405161048b9190613bd4565b60405180910390f35b6104ae60048036038101906104a99190612e6d565b61159c565b005b6104ca60048036038101906104c59190612d3e565b6115b2565b6040516104d79190613bb9565b60405180910390f35b6104fa60048036038101906104f59190612df2565b6116ea565b005b61051660048036038101906105119190612ff3565b61174c565b6040516105239190613bd4565b60405180910390f35b61054660048036038101906105419190612ff3565b6118bf565b6040516105539190613f38565b60405180910390f35b6105646118e3565b6040516105719190613b30565b60405180910390f35b610594600480360381019061058f9190612ff3565b611909565b6040516105a19190613f16565b60405180910390f35b6105b2611ab3565b6040516105bf9190613f38565b60405180910390f35b6105e260048036038101906105dd9190612d67565b611ab9565b6040516105ef9190613bb9565b60405180910390f35b610612600480360381019061060d9190612d3e565b611b4d565b005b61061c611cf9565b73ffffffffffffffffffffffffffffffffffffffff1661063a6114e0565b73ffffffffffffffffffffffffffffffffffffffff1614610690576040517f08c379a000000000000000000000000000000000000000000000000000000000815260040161068790613e16565b60405180910390fd5b3373ffffffffffffffffffffffffffffffffffffffff168173ffffffffffffffffffffffffffffffffffffffff1614156106ff576040517f08c379a00000000000000000000000000000000000000000000000000000000081526004016106f690613d56565b60405180910390fd5b60001515600d60008373ffffffffffffffffffffffffffffffffffffffff1673ffffffffffffffffffffffffffffffffffffffff16815260200190815260200160002060009054906101000a900460ff16151514610792576040517f08c379a000000000000000000000000000000000000000000000000000000000815260040161078990613e56565b60405180910390fd5b6001600d60008373ffffffffffffffffffffffffffffffffffffffff1673ffffffffffffffffffffffffffffffffffffffff16815260200190815260200160002060006101000a81548160ff021916908315150217905550600b60008154809291906107fd90614298565b919050555050565b60007f80ac58cd000000000000000000000000000000000000000000000000000000007bffffffffffffffffffffffffffffffffffffffffffffffffffffffff1916827bffffffffffffffffffffffffffffffffffffffffffffffffffffffff191614806108d057507f5b5e139f000000000000000000000000000000000000000000000000000000007bffffffffffffffffffffffffffffffffffffffffffffffffffffffff1916827bffffffffffffffffffffffffffffffffffffffffffffffffffffffff1916145b806108e057506108df82611d01565b5b9050919050565b600060011515600d60003373ffffffffffffffffffffffffffffffffffffffff1673ffffffffffffffffffffffffffffffffffffffff16815260200190815260200160002060009054906101000a900460ff1615151461097c576040517f08c379a000000000000000000000000000000000000000000000000000000000815260040161097390613ed6565b60405180910390fd5b600084116109bf576040517f08c379a00000000000000000000000000000000000000000000000000000000081526004016109b690613bf6565b60405180910390fd5b60008311610a02576040517f08c379a00000000000000000000000000000000000000000000000000000000081526004016109f990613d16565b60405180910390fd5b60008211610a45576040517f08c379a0000000000000000000000000000000000000000000000000000000008152600401610a3c90613c76565b60405180910390fd5b83831015610a5257600080fd5b610a5c600a611d68565b6000610a68600a611d7e565b9050610a743382611d8c565b610a7d8161174c565b5060006201518084610a8f91906140f8565b42610a9a9190614071565b9050610aaa338884888a86611f66565b60016011600084815260200190815260200160002060006101000a81548160ff0219169083151502179055508192505050949350505050565b606060018054610af290614266565b80601f0160208091040260200160405190810160405280929190818152602001828054610b1e90614266565b8015610b6b5780601f10610b4057610100808354040283529160200191610b6b565b820191906000526020600020905b815481529060010190602001808311610b4e57829003601f168201915b5050505050905090565b6000610b808261213c565b610bbf576040517f08c379a0000000000000000000000000000000000000000000000000000000008152600401610bb690613df6565b60405180910390fd5b6006600083815260200190815260200160002060009054906101000a900473ffffffffffffffffffffffffffffffffffffffff169050919050565b6000610c0582611151565b90508073ffffffffffffffffffffffffffffffffffffffff168373ffffffffffffffffffffffffffffffffffffffff161415610c76576040517f08c379a0000000000000000000000000000000000000000000000000000000008152600401610c6d90613e76565b60405180910390fd5b8073ffffffffffffffffffffffffffffffffffffffff16610c95611cf9565b73ffffffffffffffffffffffffffffffffffffffff161480610cc45750610cc381610cbe611cf9565b611ab9565b5b610d03576040517f08c379a0000000000000000000000000000000000000000000000000000000008152600401610cfa90613d76565b60405180910390fd5b610d0d83836121a8565b505050565b610d1a611cf9565b73ffffffffffffffffffffffffffffffffffffffff16610d386114e0565b73ffffffffffffffffffffffffffffffffffffffff1614610d8e576040517f08c379a0000000000000000000000000000000000000000000000000000000008152600401610d8590613e16565b60405180910390fd5b60011515600d60008373ffffffffffffffffffffffffffffffffffffffff1673ffffffffffffffffffffffffffffffffffffffff16815260200190815260200160002060009054906101000a900460ff16151514610e21576040517f08c379a0000000000000000000000000000000000000000000000000000000008152600401610e1890613ef6565b60405180910390fd5b600b6000815480929190610e349061423c565b91905055506000600d60008373ffffffffffffffffffffffffffffffffffffffff1673ffffffffffffffffffffffffffffffffffffffff16815260200190815260200160002060006101000a81548160ff02191690831515021790555050565b610ea5610e9f611cf9565b82612261565b610ee4576040517f08c379a0000000000000000000000000000000000000000000000000000000008152600401610edb90613eb6565b60405180910390fd5b610eef83838361233f565b505050565b610f0f838383604051806020016040528060008152506116ea565b505050565b60116020528060005260406000206000915054906101000a900460ff1681565b610f3c611cf9565b73ffffffffffffffffffffffffffffffffffffffff16610f5a6114e0565b73ffffffffffffffffffffffffffffffffffffffff1614610fb0576040517f08c379a0000000000000000000000000000000000000000000000000000000008152600401610fa790613e16565b60405180910390fd5b610fb9816125a6565b50565b6060600f805480602002602001604051908101604052809291908181526020016000905b8282101561112257838290600052602060002090600602016040518060c00160405290816000820160009054906101000a900473ffffffffffffffffffffffffffffffffffffffff1673ffffffffffffffffffffffffffffffffffffffff1673ffffffffffffffffffffffffffffffffffffffff16815260200160018201805461106990614266565b80601f016020809104026020016040519081016040528092919081815260200182805461109590614266565b80156110e25780601f106110b7576101008083540402835291602001916110e2565b820191906000526020600020905b8154815290600101906020018083116110c557829003601f168201915b5050505050815260200160028201548152602001600382015481526020016004820154815260200160058201548152505081526020019060010190610fe0565b50505050905090565b601060009054906101000a900473ffffffffffffffffffffffffffffffffffffffff1681565b6000806004600084815260200190815260200160002060009054906101000a900473ffffffffffffffffffffffffffffffffffffffff169050600073ffffffffffffffffffffffffffffffffffffffff168173ffffffffffffffffffffffffffffffffffffffff1614156111fa576040517f08c379a00000000000000000000000000000000000000000000000000000000081526004016111f190613db6565b60405180910390fd5b80915050919050565b60606003805461121290614266565b80601f016020809104026020016040519081016040528092919081815260200182805461123e90614266565b801561128b5780601f106112605761010080835404028352916020019161128b565b820191906000526020600020905b81548152906001019060200180831161126e57829003601f168201915b5050505050905090565b60008073ffffffffffffffffffffffffffffffffffffffff168273ffffffffffffffffffffffffffffffffffffffff161415611306576040517f08c379a00000000000000000000000000000000000000000000000000000000081526004016112fd90613d96565b60405180910390fd5b600560008373ffffffffffffffffffffffffffffffffffffffff1673ffffffffffffffffffffffffffffffffffffffff168152602001908152602001600020549050919050565b611355611cf9565b73ffffffffffffffffffffffffffffffffffffffff166113736114e0565b73ffffffffffffffffffffffffffffffffffffffff16146113c9576040517f08c379a00000000000000000000000000000000000000000000000000000000081526004016113c090613e16565b60405180910390fd5b600073ffffffffffffffffffffffffffffffffffffffff16600960009054906101000a900473ffffffffffffffffffffffffffffffffffffffff1673ffffffffffffffffffffffffffffffffffffffff167f8be0079c531659141344cd1fd0a4f28419497f9722a3daafe3b4186f6b6457e060405160405180910390a36000600960006101000a81548173ffffffffffffffffffffffffffffffffffffffff021916908373ffffffffffffffffffffffffffffffffffffffff160217905550565b6000600d60008373ffffffffffffffffffffffffffffffffffffffff1673ffffffffffffffffffffffffffffffffffffffff16815260200190815260200160002060009054906101000a900460ff169050919050565b6000600960009054906101000a900473ffffffffffffffffffffffffffffffffffffffff16905090565b60606002805461151990614266565b80601f016020809104026020016040519081016040528092919081815260200182805461154590614266565b80156115925780601f1061156757610100808354040283529160200191611592565b820191906000526020600020905b81548152906001019060200180831161157557829003601f168201915b5050505050905090565b6115ae6115a7611cf9565b83836125c0565b5050565b60006115bc611cf9565b73ffffffffffffffffffffffffffffffffffffffff166115da6114e0565b73ffffffffffffffffffffffffffffffffffffffff1614611630576040517f08c379a000000000000000000000000000000000000000000000000000000000815260040161162790613e16565b60405180910390fd5b600073ffffffffffffffffffffffffffffffffffffffff168273ffffffffffffffffffffffffffffffffffffffff1614156116a0576040517f08c379a000000000000000000000000000000000000000000000000000000000815260040161169790613e96565b60405180910390fd5b81601060006101000a81548173ffffffffffffffffffffffffffffffffffffffff021916908373ffffffffffffffffffffffffffffffffffffffff16021790555060019050919050565b6116fb6116f5611cf9565b83612261565b61173a576040517f08c379a000000000000000000000000000000000000000000000000000000000815260040161173190613eb6565b60405180910390fd5b6117468484848461272d565b50505050565b60606117578261213c565b611796576040517f08c379a000000000000000000000000000000000000000000000000000000000815260040161178d90613e36565b60405180910390fd5b60006007600084815260200190815260200160002080546117b690614266565b80601f01602080910402602001604051908101604052809291908181526020018280546117e290614266565b801561182f5780601f106118045761010080835404028352916020019161182f565b820191906000526020600020905b81548152906001019060200180831161181257829003601f168201915b505050505090506000611840611203565b90506000815114156118565781925050506118ba565b60008251111561188b578082604051602001611873929190613b0c565b604051602081830303815290604052925050506118ba565b8061189585612789565b6040516020016118a6929190613b0c565b604051602081830303815290604052925050505b919050565b601281815481106118cf57600080fd5b906000526020600020016000915090505481565b600c60009054906101000a900473ffffffffffffffffffffffffffffffffffffffff1681565b611911612b16565b6000600e60008481526020019081526020016000206040518060c00160405290816000820160009054906101000a900473ffffffffffffffffffffffffffffffffffffffff1673ffffffffffffffffffffffffffffffffffffffff1673ffffffffffffffffffffffffffffffffffffffff16815260200160018201805461199790614266565b80601f01602080910402602001604051908101604052809291908181526020018280546119c390614266565b8015611a105780601f106119e557610100808354040283529160200191611a10565b820191906000526020600020905b8154815290600101906020018083116119f357829003601f168201915b505050505081526020016002820154815260200160038201548152602001600482015481526020016005820154815250509050600115156011600085815260200190815260200160002060009054906101000a900460ff16151514611aaa576040517f08c379a0000000000000000000000000000000000000000000000000000000008152600401611aa190613c36565b60405180910390fd5b80915050919050565b600b5481565b6000600860008473ffffffffffffffffffffffffffffffffffffffff1673ffffffffffffffffffffffffffffffffffffffff16815260200190815260200160002060008373ffffffffffffffffffffffffffffffffffffffff1673ffffffffffffffffffffffffffffffffffffffff16815260200190815260200160002060009054906101000a900460ff16905092915050565b611b55611cf9565b73ffffffffffffffffffffffffffffffffffffffff16611b736114e0565b73ffffffffffffffffffffffffffffffffffffffff1614611bc9576040517f08c379a0000000000000000000000000000000000000000000000000000000008152600401611bc090613e16565b60405180910390fd5b600073ffffffffffffffffffffffffffffffffffffffff168173ffffffffffffffffffffffffffffffffffffffff161415611c39576040517f08c379a0000000000000000000000000000000000000000000000000000000008152600401611c3090613c56565b60405180910390fd5b8073ffffffffffffffffffffffffffffffffffffffff16600960009054906101000a900473ffffffffffffffffffffffffffffffffffffffff1673ffffffffffffffffffffffffffffffffffffffff167f8be0079c531659141344cd1fd0a4f28419497f9722a3daafe3b4186f6b6457e060405160405180910390a380600960006101000a81548173ffffffffffffffffffffffffffffffffffffffff021916908373ffffffffffffffffffffffffffffffffffffffff16021790555050565b600033905090565b6000806000837bffffffffffffffffffffffffffffffffffffffffffffffffffffffff19167bffffffffffffffffffffffffffffffffffffffffffffffffffffffff1916815260200190815260200160002060009054906101000a900460ff169050919050565b6001816000016000828254019250508190555050565b600081600001549050919050565b600073ffffffffffffffffffffffffffffffffffffffff168273ffffffffffffffffffffffffffffffffffffffff161415611dfc576040517f08c379a0000000000000000000000000000000000000000000000000000000008152600401611df390613dd6565b60405180910390fd5b611e058161213c565b15611e45576040517f08c379a0000000000000000000000000000000000000000000000000000000008152600401611e3c90613cb6565b60405180910390fd5b611e5160008383612936565b6001600560008473ffffffffffffffffffffffffffffffffffffffff1673ffffffffffffffffffffffffffffffffffffffff1681526020019081526020016000206000828254611ea19190614071565b92505081905550816004600083815260200190815260200160002060006101000a81548173ffffffffffffffffffffffffffffffffffffffff021916908373ffffffffffffffffffffffffffffffffffffffff160217905550808273ffffffffffffffffffffffffffffffffffffffff16600073ffffffffffffffffffffffffffffffffffffffff167fddf252ad1be2c89b69c2b068fc378daa952ba7f163c4a11628f55a4df523b3ef60405160405180910390a4611f626000838361293b565b5050565b60006040518060c001604052808873ffffffffffffffffffffffffffffffffffffffff16815260200187815260200186815260200185815260200184815260200183815250905080600e600087815260200190815260200160002060008201518160000160006101000a81548173ffffffffffffffffffffffffffffffffffffffff021916908373ffffffffffffffffffffffffffffffffffffffff1602179055506020820151816001019080519060200190612024929190612b62565b5060408201518160020155606082015181600301556080820151816004015560a08201518160050155905050600f81908060018154018082558091505060019003906000526020600020906006020160009091909190915060008201518160000160006101000a81548173ffffffffffffffffffffffffffffffffffffffff021916908373ffffffffffffffffffffffffffffffffffffffff16021790555060208201518160010190805190602001906120df929190612b62565b5060408201518160020155606082015181600301556080820151816004015560a082015181600501555050601285908060018154018082558091505060019003906000526020600020016000909190919091505550505050505050565b60008073ffffffffffffffffffffffffffffffffffffffff166004600084815260200190815260200160002060009054906101000a900473ffffffffffffffffffffffffffffffffffffffff1673ffffffffffffffffffffffffffffffffffffffff1614159050919050565b816006600083815260200190815260200160002060006101000a81548173ffffffffffffffffffffffffffffffffffffffff021916908373ffffffffffffffffffffffffffffffffffffffff160217905550808273ffffffffffffffffffffffffffffffffffffffff1661221b83611151565b73ffffffffffffffffffffffffffffffffffffffff167f8c5be1e5ebec7d5bd14f71427d1e84f3dd0314c0f7b2291e5b200ac8c7c3b92560405160405180910390a45050565b600061226c8261213c565b6122ab576040517f08c379a00000000000000000000000000000000000000000000000000000000081526004016122a290613d36565b60405180910390fd5b60006122b683611151565b90508073ffffffffffffffffffffffffffffffffffffffff168473ffffffffffffffffffffffffffffffffffffffff16148061232557508373ffffffffffffffffffffffffffffffffffffffff1661230d84610b75565b73ffffffffffffffffffffffffffffffffffffffff16145b8061233657506123358185611ab9565b5b91505092915050565b8273ffffffffffffffffffffffffffffffffffffffff1661235f82611151565b73ffffffffffffffffffffffffffffffffffffffff16146123b5576040517f08c379a00000000000000000000000000000000000000000000000000000000081526004016123ac90613c96565b60405180910390fd5b600073ffffffffffffffffffffffffffffffffffffffff168273ffffffffffffffffffffffffffffffffffffffff161415612425576040517f08c379a000000000000000000000000000000000000000000000000000000000815260040161241c90613cd6565b60405180910390fd5b612430838383612936565b61243b6000826121a8565b6001600560008573ffffffffffffffffffffffffffffffffffffffff1673ffffffffffffffffffffffffffffffffffffffff168152602001908152602001600020600082825461248b9190614152565b925050819055506001600560008473ffffffffffffffffffffffffffffffffffffffff1673ffffffffffffffffffffffffffffffffffffffff16815260200190815260200160002060008282546124e29190614071565b92505081905550816004600083815260200190815260200160002060006101000a81548173ffffffffffffffffffffffffffffffffffffffff021916908373ffffffffffffffffffffffffffffffffffffffff160217905550808273ffffffffffffffffffffffffffffffffffffffff168473ffffffffffffffffffffffffffffffffffffffff167fddf252ad1be2c89b69c2b068fc378daa952ba7f163c4a11628f55a4df523b3ef60405160405180910390a46125a183838361293b565b505050565b80600390805190602001906125bc929190612b62565b5050565b8173ffffffffffffffffffffffffffffffffffffffff168373ffffffffffffffffffffffffffffffffffffffff16141561262f576040517f08c379a000000000000000000000000000000000000000000000000000000000815260040161262690613cf6565b60405180910390fd5b80600860008573ffffffffffffffffffffffffffffffffffffffff1673ffffffffffffffffffffffffffffffffffffffff16815260200190815260200160002060008473ffffffffffffffffffffffffffffffffffffffff1673ffffffffffffffffffffffffffffffffffffffff16815260200190815260200160002060006101000a81548160ff0219169083151502179055508173ffffffffffffffffffffffffffffffffffffffff168373ffffffffffffffffffffffffffffffffffffffff167f17307eab39ab6107e8899845ad3d59bd9653f200f220920489ca2b5937696c31836040516127209190613bb9565b60405180910390a3505050565b61273884848461233f565b61274484848484612940565b612783576040517f08c379a000000000000000000000000000000000000000000000000000000000815260040161277a90613c16565b60405180910390fd5b50505050565b606060008214156127d1576040518060400160405280600181526020017f30000000000000000000000000000000000000000000000000000000000000008152509050612931565b600082905060005b600082146128035780806127ec90614298565b915050600a826127fc91906140c7565b91506127d9565b60008167ffffffffffffffff811115612845577f4e487b7100000000000000000000000000000000000000000000000000000000600052604160045260246000fd5b6040519080825280601f01601f1916602001820160405280156128775781602001600182028036833780820191505090505b5090505b6000851461292a576001826128909190614152565b9150600a8561289f91906142e1565b60306128ab9190614071565b60f81b8183815181106128e7577f4e487b7100000000000000000000000000000000000000000000000000000000600052603260045260246000fd5b60200101907effffffffffffffffffffffffffffffffffffffffffffffffffffffffffffff1916908160001a905350600a8561292391906140c7565b945061287b565b8093505050505b919050565b505050565b505050565b60006129618473ffffffffffffffffffffffffffffffffffffffff16612ad7565b15612aca578373ffffffffffffffffffffffffffffffffffffffff1663150b7a0261298a611cf9565b8786866040518563ffffffff1660e01b81526004016129ac9493929190613b4b565b602060405180830381600087803b1580156129c657600080fd5b505af19250505080156129f757506040513d601f19601f820116820180604052508101906129f49190612f0e565b60015b612a7a573d8060008114612a27576040519150601f19603f3d011682016040523d82523d6000602084013e612a2c565b606091505b50600081511415612a72576040517f08c379a0000000000000000000000000000000000000000000000000000000008152600401612a6990613c16565b60405180910390fd5b805181602001fd5b63150b7a0260e01b7bffffffffffffffffffffffffffffffffffffffffffffffffffffffff1916817bffffffffffffffffffffffffffffffffffffffffffffffffffffffff191614915050612acf565b600190505b949350505050565b6000808273ffffffffffffffffffffffffffffffffffffffff16803b806020016040519081016040528181526000908060200190933c51119050919050565b6040518060c00160405280600073ffffffffffffffffffffffffffffffffffffffff16815260200160608152602001600081526020016000815260200160008152602001600081525090565b828054612b6e90614266565b90600052602060002090601f016020900481019282612b905760008555612bd7565b82601f10612ba957805160ff1916838001178555612bd7565b82800160010185558215612bd7579182015b82811115612bd6578251825591602001919060010190612bbb565b5b509050612be49190612be8565b5090565b5b80821115612c01576000816000905550600101612be9565b5090565b6000612c18612c1384613f84565b613f53565b905082815260208101848484011115612c3057600080fd5b612c3b8482856141fa565b509392505050565b6000612c56612c5184613fb4565b613f53565b905082815260208101848484011115612c6e57600080fd5b612c798482856141fa565b509392505050565b600081359050612c90816143df565b92915050565b600081359050612ca5816143f6565b92915050565b600081359050612cba8161440d565b92915050565b600081519050612ccf8161440d565b92915050565b600082601f830112612ce657600080fd5b8135612cf6848260208601612c05565b91505092915050565b600082601f830112612d1057600080fd5b8135612d20848260208601612c43565b91505092915050565b600081359050612d3881614424565b92915050565b600060208284031215612d5057600080fd5b6000612d5e84828501612c81565b91505092915050565b60008060408385031215612d7a57600080fd5b6000612d8885828601612c81565b9250506020612d9985828601612c81565b9150509250929050565b600080600060608486031215612db857600080fd5b6000612dc686828701612c81565b9350506020612dd786828701612c81565b9250506040612de886828701612d29565b9150509250925092565b60008060008060808587031215612e0857600080fd5b6000612e1687828801612c81565b9450506020612e2787828801612c81565b9350506040612e3887828801612d29565b925050606085013567ffffffffffffffff811115612e5557600080fd5b612e6187828801612cd5565b91505092959194509250565b60008060408385031215612e8057600080fd5b6000612e8e85828601612c81565b9250506020612e9f85828601612c96565b9150509250929050565b60008060408385031215612ebc57600080fd5b6000612eca85828601612c81565b9250506020612edb85828601612d29565b9150509250929050565b600060208284031215612ef757600080fd5b6000612f0584828501612cab565b91505092915050565b600060208284031215612f2057600080fd5b6000612f2e84828501612cc0565b91505092915050565b600060208284031215612f4957600080fd5b600082013567ffffffffffffffff811115612f6357600080fd5b612f6f84828501612cff565b91505092915050565b60008060008060808587031215612f8e57600080fd5b600085013567ffffffffffffffff811115612fa857600080fd5b612fb487828801612cff565b9450506020612fc587828801612d29565b9350506040612fd687828801612d29565b9250506060612fe787828801612d29565b91505092959194509250565b60006020828403121561300557600080fd5b600061301384828501612d29565b91505092915050565b600061302883836139dc565b905092915050565b61303981614186565b82525050565b61304881614186565b82525050565b600061305982613ff4565b6130638185614022565b93508360208202850161307585613fe4565b8060005b858110156130b15784840389528151613092858261301c565b945061309d83614015565b925060208a01995050600181019050613079565b50829750879550505050505092915050565b6130cc81614198565b82525050565b60006130dd82613fff565b6130e78185614033565b93506130f7818560208601614209565b613100816143ce565b840191505092915050565b60006131168261400a565b6131208185614044565b9350613130818560208601614209565b613139816143ce565b840191505092915050565b600061314f8261400a565b6131598185614055565b9350613169818560208601614209565b613172816143ce565b840191505092915050565b60006131888261400a565b6131928185614066565b93506131a2818560208601614209565b80840191505092915050565b60006131bb601283614055565b91507f656e7465722076616c696420616d6f756e7400000000000000000000000000006000830152602082019050919050565b60006131fb603283614055565b91507f4552433732313a207472616e7366657220746f206e6f6e20455243373231526560008301527f63656976657220696d706c656d656e74657200000000000000000000000000006020830152604082019050919050565b6000613261601083614055565b91507f20496e76616c696420746f6b656e4964000000000000000000000000000000006000830152602082019050919050565b60006132a1602683614055565b91507f4f776e61626c653a206e6577206f776e657220697320746865207a65726f206160008301527f64647265737300000000000000000000000000000000000000000000000000006020830152604082019050919050565b6000613307600c83614055565b91507f656e7465722076616c69642000000000000000000000000000000000000000006000830152602082019050919050565b6000613347602583614055565b91507f4552433732313a207472616e736665722066726f6d20696e636f72726563742060008301527f6f776e65720000000000000000000000000000000000000000000000000000006020830152604082019050919050565b60006133ad601c83614055565b91507f4552433732313a20746f6b656e20616c7265616479206d696e746564000000006000830152602082019050919050565b60006133ed602483614055565b91507f4552433732313a207472616e7366657220746f20746865207a65726f2061646460008301527f72657373000000000000000000000000000000000000000000000000000000006020830152604082019050919050565b6000613453601983614055565b91507f4552433732313a20617070726f766520746f2063616c6c6572000000000000006000830152602082019050919050565b6000613493601183614055565b91507f656e7465722076616c69642076616c75650000000000000000000000000000006000830152602082019050919050565b60006134d3602c83614055565b91507f4552433732313a206f70657261746f7220717565727920666f72206e6f6e657860008301527f697374656e7420746f6b656e00000000000000000000000000000000000000006020830152604082019050919050565b6000613539601b83614055565b91507f73656c66206c697374696e67206973206e6f7420616c6c6f77656400000000006000830152602082019050919050565b6000613579603883614055565b91507f4552433732313a20617070726f76652063616c6c6572206973206e6f74206f7760008301527f6e6572206e6f7220617070726f76656420666f7220616c6c00000000000000006020830152604082019050919050565b60006135df602a83614055565b91507f4552433732313a2062616c616e636520717565727920666f7220746865207a6560008301527f726f2061646472657373000000000000000000000000000000000000000000006020830152604082019050919050565b6000613645602983614055565b91507f4552433732313a206f776e657220717565727920666f72206e6f6e657869737460008301527f656e7420746f6b656e00000000000000000000000000000000000000000000006020830152604082019050919050565b60006136ab602083614055565b91507f4552433732313a206d696e7420746f20746865207a65726f20616464726573736000830152602082019050919050565b60006136eb602c83614055565b91507f4552433732313a20617070726f76656420717565727920666f72206e6f6e657860008301527f697374656e7420746f6b656e00000000000000000000000000000000000000006020830152604082019050919050565b6000613751602083614055565b91507f4f776e61626c653a2063616c6c6572206973206e6f7420746865206f776e65726000830152602082019050919050565b6000613791602f83614055565b91507f4552433732314d657461646174613a2055524920717565727920666f72206e6f60008301527f6e6578697374656e7420746f6b656e00000000000000000000000000000000006020830152604082019050919050565b60006137f7601383614055565b91507f416c72656164792077686974656c6973746564000000000000000000000000006000830152602082019050919050565b6000613837602183614055565b91507f4552433732313a20617070726f76616c20746f2063757272656e74206f776e6560008301527f72000000000000000000000000000000000000000000000000000000000000006020830152604082019050919050565b600061389d602a83614055565b91507f4f70657261746f723a206e6577206f70657261746f7220697320746865207a6560008301527f726f2061646472657373000000000000000000000000000000000000000000006020830152604082019050919050565b6000613903603183614055565b91507f4552433732313a207472616e736665722063616c6c6572206973206e6f74206f60008301527f776e6572206e6f7220617070726f7665640000000000000000000000000000006020830152604082019050919050565b6000613969601383614055565b91507f75736572206e6f7420776869746c6973746564000000000000000000000000006000830152602082019050919050565b60006139a9600c83614055565b91507f496e76616c6964207573657200000000000000000000000000000000000000006000830152602082019050919050565b600060c0830160008301516139f46000860182613030565b5060208301518482036020860152613a0c828261310b565b9150506040830151613a216040860182613aee565b506060830151613a346060860182613aee565b506080830151613a476080860182613aee565b5060a0830151613a5a60a0860182613aee565b508091505092915050565b600060c083016000830151613a7d6000860182613030565b5060208301518482036020860152613a95828261310b565b9150506040830151613aaa6040860182613aee565b506060830151613abd6060860182613aee565b506080830151613ad06080860182613aee565b5060a0830151613ae360a0860182613aee565b508091505092915050565b613af7816141f0565b82525050565b613b06816141f0565b82525050565b6000613b18828561317d565b9150613b24828461317d565b91508190509392505050565b6000602082019050613b45600083018461303f565b92915050565b6000608082019050613b60600083018761303f565b613b6d602083018661303f565b613b7a6040830185613afd565b8181036060830152613b8c81846130d2565b905095945050505050565b60006020820190508181036000830152613bb1818461304e565b905092915050565b6000602082019050613bce60008301846130c3565b92915050565b60006020820190508181036000830152613bee8184613144565b905092915050565b60006020820190508181036000830152613c0f816131ae565b9050919050565b60006020820190508181036000830152613c2f816131ee565b9050919050565b60006020820190508181036000830152613c4f81613254565b9050919050565b60006020820190508181036000830152613c6f81613294565b9050919050565b60006020820190508181036000830152613c8f816132fa565b9050919050565b60006020820190508181036000830152613caf8161333a565b9050919050565b60006020820190508181036000830152613ccf816133a0565b9050919050565b60006020820190508181036000830152613cef816133e0565b9050919050565b60006020820190508181036000830152613d0f81613446565b9050919050565b60006020820190508181036000830152613d2f81613486565b9050919050565b60006020820190508181036000830152613d4f816134c6565b9050919050565b60006020820190508181036000830152613d6f8161352c565b9050919050565b60006020820190508181036000830152613d8f8161356c565b9050919050565b60006020820190508181036000830152613daf816135d2565b9050919050565b60006020820190508181036000830152613dcf81613638565b9050919050565b60006020820190508181036000830152613def8161369e565b9050919050565b60006020820190508181036000830152613e0f816136de565b9050919050565b60006020820190508181036000830152613e2f81613744565b9050919050565b60006020820190508181036000830152613e4f81613784565b9050919050565b60006020820190508181036000830152613e6f816137ea565b9050919050565b60006020820190508181036000830152613e8f8161382a565b9050919050565b60006020820190508181036000830152613eaf81613890565b9050919050565b60006020820190508181036000830152613ecf816138f6565b9050919050565b60006020820190508181036000830152613eef8161395c565b9050919050565b60006020820190508181036000830152613f0f8161399c565b9050919050565b60006020820190508181036000830152613f308184613a65565b905092915050565b6000602082019050613f4d6000830184613afd565b92915050565b6000604051905081810181811067ffffffffffffffff82111715613f7a57613f7961439f565b5b8060405250919050565b600067ffffffffffffffff821115613f9f57613f9e61439f565b5b601f19601f8301169050602081019050919050565b600067ffffffffffffffff821115613fcf57613fce61439f565b5b601f19601f8301169050602081019050919050565b6000819050602082019050919050565b600081519050919050565b600081519050919050565b600081519050919050565b6000602082019050919050565b600082825260208201905092915050565b600082825260208201905092915050565b600082825260208201905092915050565b600082825260208201905092915050565b600081905092915050565b600061407c826141f0565b9150614087836141f0565b9250827fffffffffffffffffffffffffffffffffffffffffffffffffffffffffffffffff038211156140bc576140bb614312565b5b828201905092915050565b60006140d2826141f0565b91506140dd836141f0565b9250826140ed576140ec614341565b5b828204905092915050565b6000614103826141f0565b915061410e836141f0565b9250817fffffffffffffffffffffffffffffffffffffffffffffffffffffffffffffffff048311821515161561414757614146614312565b5b828202905092915050565b600061415d826141f0565b9150614168836141f0565b92508282101561417b5761417a614312565b5b828203905092915050565b6000614191826141d0565b9050919050565b60008115159050919050565b60007fffffffff0000000000000000000000000000000000000000000000000000000082169050919050565b600073ffffffffffffffffffffffffffffffffffffffff82169050919050565b6000819050919050565b82818337600083830152505050565b60005b8381101561422757808201518184015260208101905061420c565b83811115614236576000848401525b50505050565b6000614247826141f0565b9150600082141561425b5761425a614312565b5b600182039050919050565b6000600282049050600182168061427e57607f821691505b6020821081141561429257614291614370565b5b50919050565b60006142a3826141f0565b91507fffffffffffffffffffffffffffffffffffffffffffffffffffffffffffffffff8214156142d6576142d5614312565b5b600182019050919050565b60006142ec826141f0565b91506142f7836141f0565b92508261430757614306614341565b5b828206905092915050565b7f4e487b7100000000000000000000000000000000000000000000000000000000600052601160045260246000fd5b7f4e487b7100000000000000000000000000000000000000000000000000000000600052601260045260246000fd5b7f4e487b7100000000000000000000000000000000000000000000000000000000600052602260045260246000fd5b7f4e487b7100000000000000000000000000000000000000000000000000000000600052604160045260246000fd5b6000601f19601f8301169050919050565b6143e881614186565b81146143f357600080fd5b50565b6143ff81614198565b811461440a57600080fd5b50565b614416816141a4565b811461442157600080fd5b50565b61442d816141f0565b811461443857600080fd5b5056fea26469706673582212208b92a2bbeed0e30b5014f686a27336d4bec102f95084751fe242562ca6a9a12164736f6c63430008000033",
  "immutableReferences": {},
  "source": "// SPDX-License-Identifier: MIT\n\npragma solidity ^0.8.0;\n\nimport \"./External/ERC721.sol\";\nimport \"./External/Counters.sol\";\nimport \"./External/SafeMath.sol\";\nimport \"./External/Ownable.sol\";\n\n\ncontract InvoiceNFT is ERC721,Ownable {\n    \n    using Counters for Counters.Counter;\n    Counters.Counter private _tokenIds;\n    using SafeMath for uint256;   \n\n    //address[] internal whitelistedUsers;\n\n    uint256 public NumAddresses;\n\n    address public stakingAddress;\n\n    mapping(address => bool) internal IsWhitelisted;\n\n    struct Invoice {\n\n      address owner;\n      string tokenURI;\n      uint256 tokenId;\n      uint256 InvoiceValue;\n      uint256 LoanAmount;\n      uint256 LoanPeriod;\n    \n    }\n    \n    mapping(uint256 => Invoice) private IdToInvoice;\n    \n    Invoice[] internal AllInvoices;\n\n    address public operator;\n    \n    // token exist\n    \n    mapping(uint256 => bool) public exists;\n    \n    uint256[] public tokenIds;\n    \n    address InvoicePool;\n\n    string private _tokenBaseURI;\n    \n  \n   // constructor\n\n    constructor () ERC721(\"Invoice\",\"INVT\") {}\n    \n\n    function setBaseURI(string memory _baseURI) public onlyOwner{\n        _setBaseURI(_baseURI);\n    }\n    \n    //  Minting a token\n   \n   function mint(\n    \n    string memory _tokenURI,\n    uint256 _LoanAmount,\n    uint256 _InvoiceValue,\n    uint256 _LoanPeriod\n\n   ) public returns (uint256) {\n\n    require (IsWhitelisted[msg.sender] == true, \"user not whitlisted\");\n    require (_LoanAmount > 0 , \"enter valid amount\");\n    require (_InvoiceValue > 0, \"enter valid value\");\n    require (_LoanPeriod > 0, \"enter valid \");\n    require (_InvoiceValue >= _LoanAmount);\n       \n       // Incrementing total supply\n       \n       _tokenIds.increment();\n        \n        uint256 _tokenId = _tokenIds.current();\n       \n       _mint(msg.sender, _tokenId);               // mint\n\n       tokenURI(_tokenId);                        // setting tokenURI\n       \n       uint256 time = block.timestamp + (_LoanPeriod * 1 days);\n       \n       Metadata(msg.sender,_tokenURI,_tokenId,_InvoiceValue,_LoanAmount,time);\n\n       exists[_tokenId] = true;                      \n       \n       return _tokenId;                         // tokenId of an nft \n    \n    }\n    \n    \n    function viewInvoiceById (uint256 _tokenId) public view returns (Invoice memory ) {\n\n       Invoice memory c = IdToInvoice[_tokenId];\n\n       require(exists[_tokenId]== true , \" Invalid tokenId\");\n\n       return c;\n    }\n\n  \n    function getAllInvoices() public view returns (Invoice[] memory)  {\n        \n        return AllInvoices;\n        \n    }\n\n    function approve(address to, uint256 tokenId) public virtual override {\n        address owner = ERC721.ownerOf(tokenId);\n        require(to != owner, \"ERC721: approval to current owner\");\n\n        require(\n            _msgSender() == owner || isApprovedForAll(owner, _msgSender()),\n            \"ERC721: approve caller is not owner nor approved for all\"\n        );\n\n        _approve(to, tokenId);\n\n       // stakeContract.stakeNft(tokenId);\n    }\n\n    \n    function setOperator(address _operator) public onlyOwner returns(bool) {\n        require(_operator != address(0), \"Operator: new operator is the zero address\");\n        operator = _operator;\n       // emit operatorChanged(address(0),operator);\n        return true;\n    }\n\n    //function setStakingAddress(address _stakeContract) public onlyOwner {\n    //    setApprovalForAll(_stakeContract, true);\n    //    stakeContract = _stakeContract;\n    //  }\n\n\n     function Metadata(\n  \n      address _owner,\n      string memory _tokenURI,\n      uint256 _tokenId,\n      uint256 _InvoiceValue,\n      uint256 _LoanAmount,\n      uint256 _LoanPeriod\n    \n            \n        ) internal {\n            \n            Invoice memory _Invoice  = Invoice ({\n                \n                owner : _owner,\n                tokenURI : _tokenURI,\n                tokenId:_tokenId,\n                InvoiceValue:_InvoiceValue,\n                LoanAmount:_LoanAmount,\n                LoanPeriod:_LoanPeriod\n                \n            });\n            \n            IdToInvoice[_tokenId] = _Invoice;\n            \n            // updating array of AllInvoice   \n            \n            AllInvoices.push(_Invoice);\n           \n            // updating array of tokenIds\n           \n            tokenIds.push(_tokenId);\n         \n    }\n\n    function Addwhitelist(address _user) public onlyOwner{\n\n        require (_user != msg.sender, \"self listing is not allowed\");\n\n        require( IsWhitelisted[_user] == false, \"Already whitelisted\");\n\n        IsWhitelisted[_user] = true;\n\n        NumAddresses++;\n\n        //whitelistedUsers.push(_user);\n    }\n\n    function hasWhitelisted(address _user) external view returns (bool) {\n\n        return IsWhitelisted[_user];\n    }\n\n    function deleteWhitlistedUser(address _user) public onlyOwner {\n\n        require( IsWhitelisted[_user] == true, \"Invalid user\");\n\n        NumAddresses--;\n\n        IsWhitelisted[_user] = false;\n\n    }\n}      \n    \n    \n    \n    \n    \n    \n    \n    \n    \n    \n    \n    \n  ",
  "sourcePath": "/home/i0068/Invoice/contracts/InvoiceNFT.sol",
  "compiler": {
    "name": "solc",
    "version": "0.8.0+commit.c7dfd78e.Emscripten.clang"
  },
  "schemaVersion": "3.4.3",
  "updatedAt": "2022-02-10T17:53:38.122Z",
  "networkType": "ethereum",
  "devdoc": {
    "kind": "dev",
    "methods": {
      "approve(address,uint256)": {
        "details": "See {IERC721-approve}."
      },
      "balanceOf(address)": {
        "details": "See {IERC721-balanceOf}."
      },
      "getApproved(uint256)": {
        "details": "See {IERC721-getApproved}."
      },
      "isApprovedForAll(address,address)": {
        "details": "See {IERC721-isApprovedForAll}."
      },
      "name()": {
        "details": "See {IERC721Metadata-name}."
      },
      "owner()": {
        "details": "Returns the address of the current owner."
      },
      "ownerOf(uint256)": {
        "details": "See {IERC721-ownerOf}."
      },
      "renounceOwnership()": {
        "details": "Leaves the contract without owner. It will not be possible to call `onlyOwner` functions anymore. Can only be called by the current owner. NOTE: Renouncing ownership will leave the contract without an owner, thereby removing any functionality that is only available to the owner."
      },
      "safeTransferFrom(address,address,uint256)": {
        "details": "See {IERC721-safeTransferFrom}."
      },
      "safeTransferFrom(address,address,uint256,bytes)": {
        "details": "See {IERC721-safeTransferFrom}."
      },
      "setApprovalForAll(address,bool)": {
        "details": "See {IERC721-setApprovalForAll}."
      },
      "supportsInterface(bytes4)": {
        "details": "See {IERC165-supportsInterface}."
      },
      "symbol()": {
        "details": "See {IERC721Metadata-symbol}."
      },
      "tokenURI(uint256)": {
        "details": "Returns the Uniform Resource Identifier (URI) for `tokenId` token."
      },
      "transferFrom(address,address,uint256)": {
        "details": "See {IERC721-transferFrom}."
      },
      "transferOwnership(address)": {
        "details": "Transfers ownership of the contract to a new account (`newOwner`). Can only be called by the current owner."
      }
    },
    "version": 1
  },
  "userdoc": {
    "kind": "user",
    "methods": {},
    "version": 1
  }
}