{
  "contractName": "InvoicePool",
  "abi": [
    {
      "inputs": [
        {
          "internalType": "contract InvoiceNFT",
          "name": "_nft",
          "type": "address"
        }
      ],
      "stateMutability": "nonpayable",
      "type": "constructor"
    },
    {
      "anonymous": false,
      "inputs": [
        {
          "indexed": true,
          "internalType": "address",
          "name": "previousOwner",
          "type": "address"
        },
        {
          "indexed": true,
          "internalType": "address",
          "name": "newOwner",
          "type": "address"
        }
      ],
      "name": "OwnershipTransferred",
      "type": "event"
    },
    {
      "anonymous": false,
      "inputs": [
        {
          "indexed": false,
          "internalType": "address",
          "name": "account",
          "type": "address"
        }
      ],
      "name": "Paused",
      "type": "event"
    },
    {
      "anonymous": false,
      "inputs": [
        {
          "indexed": true,
          "internalType": "address",
          "name": "from",
          "type": "address"
        },
        {
          "indexed": true,
          "internalType": "uint256",
          "name": "tokenId",
          "type": "uint256"
        },
        {
          "indexed": false,
          "internalType": "uint256",
          "name": "time",
          "type": "uint256"
        }
      ],
      "name": "Staked",
      "type": "event"
    },
    {
      "anonymous": false,
      "inputs": [
        {
          "indexed": false,
          "internalType": "address",
          "name": "account",
          "type": "address"
        }
      ],
      "name": "Unpaused",
      "type": "event"
    },
    {
      "anonymous": false,
      "inputs": [
        {
          "indexed": true,
          "internalType": "address",
          "name": "from",
          "type": "address"
        },
        {
          "indexed": true,
          "internalType": "uint256",
          "name": "tokenId",
          "type": "uint256"
        },
        {
          "indexed": false,
          "internalType": "uint256",
          "name": "time",
          "type": "uint256"
        }
      ],
      "name": "unStaked",
      "type": "event"
    },
    {
      "inputs": [],
      "name": "nft",
      "outputs": [
        {
          "internalType": "contract InvoiceNFT",
          "name": "",
          "type": "address"
        }
      ],
      "stateMutability": "view",
      "type": "function",
      "constant": true
    },
    {
      "inputs": [],
      "name": "owner",
      "outputs": [
        {
          "internalType": "address",
          "name": "",
          "type": "address"
        }
      ],
      "stateMutability": "view",
      "type": "function",
      "constant": true
    },
    {
      "inputs": [],
      "name": "paused",
      "outputs": [
        {
          "internalType": "bool",
          "name": "",
          "type": "bool"
        }
      ],
      "stateMutability": "view",
      "type": "function",
      "constant": true
    },
    {
      "inputs": [],
      "name": "renounceOwnership",
      "outputs": [],
      "stateMutability": "nonpayable",
      "type": "function"
    },
    {
      "inputs": [],
      "name": "stakedNFTs",
      "outputs": [
        {
          "internalType": "uint256",
          "name": "_value",
          "type": "uint256"
        }
      ],
      "stateMutability": "view",
      "type": "function",
      "constant": true
    },
    {
      "inputs": [
        {
          "internalType": "address",
          "name": "newOwner",
          "type": "address"
        }
      ],
      "name": "transferOwnership",
      "outputs": [],
      "stateMutability": "nonpayable",
      "type": "function"
    },
    {
      "inputs": [
        {
          "internalType": "uint256",
          "name": "id",
          "type": "uint256"
        }
      ],
      "name": "stakeNft",
      "outputs": [],
      "stateMutability": "nonpayable",
      "type": "function"
    },
    {
      "inputs": [
        {
          "internalType": "uint256",
          "name": "id",
          "type": "uint256"
        }
      ],
      "name": "unstakeNFT",
      "outputs": [],
      "stateMutability": "nonpayable",
      "type": "function"
    },
    {
      "inputs": [
        {
          "internalType": "uint256",
          "name": "id",
          "type": "uint256"
        }
      ],
      "name": "ValidateNFT",
      "outputs": [],
      "stateMutability": "nonpayable",
      "type": "function"
    }
  ],
  "bytecode": "0x60806040523480156200001157600080fd5b50604051620012f6380380620012f683398181016040528101906200003791906200016f565b6000620000496200015060201b60201c565b9050806000806101000a81548173ffffffffffffffffffffffffffffffffffffffff021916908373ffffffffffffffffffffffffffffffffffffffff1602179055508073ffffffffffffffffffffffffffffffffffffffff16600073ffffffffffffffffffffffffffffffffffffffff167f8be0079c531659141344cd1fd0a4f28419497f9722a3daafe3b4186f6b6457e060405160405180910390a35060008060146101000a81548160ff0219169083151502179055506001808190555080600360006101000a81548173ffffffffffffffffffffffffffffffffffffffff021916908373ffffffffffffffffffffffffffffffffffffffff16021790555050620001fd565b600033905090565b6000815190506200016981620001e3565b92915050565b6000602082840312156200018257600080fd5b6000620001928482850162000158565b91505092915050565b6000620001a882620001c3565b9050919050565b6000620001bc826200019b565b9050919050565b600073ffffffffffffffffffffffffffffffffffffffff82169050919050565b620001ee81620001af565b8114620001fa57600080fd5b50565b6110e9806200020d6000396000f3fe608060405234801561001057600080fd5b50600436106100935760003560e01c80636bf5cc72116100665780636bf5cc721461010e578063715018a61461012a5780638da5cb5b14610134578063c1dfa0bb14610152578063f2fde38b1461016e57610093565b806334343524146100985780634300f5e1146100b657806347ccca02146100d25780635c975abb146100f0575b600080fd5b6100a061018a565b6040516100ad9190610f34565b60405180910390f35b6100d060048036038101906100cb9190610be1565b610196565b005b6100da6104b3565b6040516100e79190610e59565b60405180910390f35b6100f86104d9565b6040516101059190610e3e565b60405180910390f35b61012860048036038101906101239190610be1565b6104ef565b005b61013261056e565b005b61013c6106a8565b6040516101499190610dec565b60405180910390f35b61016c60048036038101906101679190610be1565b6106d1565b005b61018860048036038101906101839190610b8f565b61092d565b005b60028060000154905081565b61019e6104d9565b156101de576040517f08c379a00000000000000000000000000000000000000000000000000000000081526004016101d590610ed4565b60405180910390fd5b60026001541415610224576040517f08c379a000000000000000000000000000000000000000000000000000000000815260040161021b90610f14565b60405180910390fd5b60026001819055503373ffffffffffffffffffffffffffffffffffffffff16600360009054906101000a900473ffffffffffffffffffffffffffffffffffffffff1673ffffffffffffffffffffffffffffffffffffffff16636352211e836040518263ffffffff1660e01b815260040161029e9190610f34565b60206040518083038186803b1580156102b657600080fd5b505afa1580156102ca573d6000803e3d6000fd5b505050506040513d601f19601f820116820180604052508101906102ee9190610bb8565b73ffffffffffffffffffffffffffffffffffffffff1614610344576040517f08c379a000000000000000000000000000000000000000000000000000000000815260040161033b90610e74565b60405180910390fd5b600115156005600083815260200190815260200160002060009054906101000a90505050600360009054906101000a900473ffffffffffffffffffffffffffffffffffffffff1673ffffffffffffffffffffffffffffffffffffffff166323b872dd3330846040518463ffffffff1660e01b81526004016103c793929190610e07565b600060405180830381600087803b1580156103e157600080fd5b505af11580156103f5573d6000803e3d6000fd5b505050506104036002610ad6565b6001600460003373ffffffffffffffffffffffffffffffffffffffff1673ffffffffffffffffffffffffffffffffffffffff16815260200190815260200160002060008282546104539190610f60565b92505081905550803373ffffffffffffffffffffffffffffffffffffffff167f1449c6dd7851abc30abf37f57715f492010519147cc2652fbc38202c18a6ee90426040516104a19190610f34565b60405180910390a36001808190555050565b600360009054906101000a900473ffffffffffffffffffffffffffffffffffffffff1681565b60008060149054906101000a900460ff16905090565b6104f7610aec565b73ffffffffffffffffffffffffffffffffffffffff166105156106a8565b73ffffffffffffffffffffffffffffffffffffffff161461056b576040517f08c379a000000000000000000000000000000000000000000000000000000000815260040161056290610ef4565b60405180910390fd5b50565b610576610aec565b73ffffffffffffffffffffffffffffffffffffffff166105946106a8565b73ffffffffffffffffffffffffffffffffffffffff16146105ea576040517f08c379a00000000000000000000000000000000000000000000000000000000081526004016105e190610ef4565b60405180910390fd5b600073ffffffffffffffffffffffffffffffffffffffff1660008054906101000a900473ffffffffffffffffffffffffffffffffffffffff1673ffffffffffffffffffffffffffffffffffffffff167f8be0079c531659141344cd1fd0a4f28419497f9722a3daafe3b4186f6b6457e060405160405180910390a360008060006101000a81548173ffffffffffffffffffffffffffffffffffffffff021916908373ffffffffffffffffffffffffffffffffffffffff160217905550565b60008060009054906101000a900473ffffffffffffffffffffffffffffffffffffffff16905090565b3373ffffffffffffffffffffffffffffffffffffffff16600360009054906101000a900473ffffffffffffffffffffffffffffffffffffffff1673ffffffffffffffffffffffffffffffffffffffff16636352211e836040518263ffffffff1660e01b81526004016107439190610f34565b60206040518083038186803b15801561075b57600080fd5b505afa15801561076f573d6000803e3d6000fd5b505050506040513d601f19601f820116820180604052508101906107939190610bb8565b73ffffffffffffffffffffffffffffffffffffffff16146107e9576040517f08c379a00000000000000000000000000000000000000000000000000000000081526004016107e090610e74565b60405180910390fd5b600360009054906101000a900473ffffffffffffffffffffffffffffffffffffffff1673ffffffffffffffffffffffffffffffffffffffff166323b872dd3033846040518463ffffffff1660e01b815260040161084893929190610e07565b600060405180830381600087803b15801561086257600080fd5b505af1158015610876573d6000803e3d6000fd5b505050506108846002610af4565b6001600460003373ffffffffffffffffffffffffffffffffffffffff1673ffffffffffffffffffffffffffffffffffffffff16815260200190815260200160002060008282546108d49190610fb6565b92505081905550803373ffffffffffffffffffffffffffffffffffffffff167fe54700985ffd0973f2d7efd700eb74fa18d4e63f5f6789bb06a67d3c532d58fe426040516109229190610f34565b60405180910390a350565b610935610aec565b73ffffffffffffffffffffffffffffffffffffffff166109536106a8565b73ffffffffffffffffffffffffffffffffffffffff16146109a9576040517f08c379a00000000000000000000000000000000000000000000000000000000081526004016109a090610ef4565b60405180910390fd5b600073ffffffffffffffffffffffffffffffffffffffff168173ffffffffffffffffffffffffffffffffffffffff161415610a19576040517f08c379a0000000000000000000000000000000000000000000000000000000008152600401610a1090610eb4565b60405180910390fd5b8073ffffffffffffffffffffffffffffffffffffffff1660008054906101000a900473ffffffffffffffffffffffffffffffffffffffff1673ffffffffffffffffffffffffffffffffffffffff167f8be0079c531659141344cd1fd0a4f28419497f9722a3daafe3b4186f6b6457e060405160405180910390a3806000806101000a81548173ffffffffffffffffffffffffffffffffffffffff021916908373ffffffffffffffffffffffffffffffffffffffff16021790555050565b6001816000016000828254019250508190555050565b600033905090565b60008160000154905060008111610b40576040517f08c379a0000000000000000000000000000000000000000000000000000000008152600401610b3790610e94565b60405180910390fd5b6001810382600001819055505050565b600081359050610b5f81611085565b92915050565b600081519050610b7481611085565b92915050565b600081359050610b898161109c565b92915050565b600060208284031215610ba157600080fd5b6000610baf84828501610b50565b91505092915050565b600060208284031215610bca57600080fd5b6000610bd884828501610b65565b91505092915050565b600060208284031215610bf357600080fd5b6000610c0184828501610b7a565b91505092915050565b610c1381610fea565b82525050565b610c2281610ffc565b82525050565b610c3181611032565b82525050565b6000610c44601083610f4f565b91507f496e76616c6964207472616e73666572000000000000000000000000000000006000830152602082019050919050565b6000610c84601b83610f4f565b91507f436f756e7465723a2064656372656d656e74206f766572666c6f7700000000006000830152602082019050919050565b6000610cc4602683610f4f565b91507f4f776e61626c653a206e6577206f776e657220697320746865207a65726f206160008301527f64647265737300000000000000000000000000000000000000000000000000006020830152604082019050919050565b6000610d2a601083610f4f565b91507f5061757361626c653a20706175736564000000000000000000000000000000006000830152602082019050919050565b6000610d6a602083610f4f565b91507f4f776e61626c653a2063616c6c6572206973206e6f7420746865206f776e65726000830152602082019050919050565b6000610daa601f83610f4f565b91507f5265656e7472616e637947756172643a207265656e7472616e742063616c6c006000830152602082019050919050565b610de681611028565b82525050565b6000602082019050610e016000830184610c0a565b92915050565b6000606082019050610e1c6000830186610c0a565b610e296020830185610c0a565b610e366040830184610ddd565b949350505050565b6000602082019050610e536000830184610c19565b92915050565b6000602082019050610e6e6000830184610c28565b92915050565b60006020820190508181036000830152610e8d81610c37565b9050919050565b60006020820190508181036000830152610ead81610c77565b9050919050565b60006020820190508181036000830152610ecd81610cb7565b9050919050565b60006020820190508181036000830152610eed81610d1d565b9050919050565b60006020820190508181036000830152610f0d81610d5d565b9050919050565b60006020820190508181036000830152610f2d81610d9d565b9050919050565b6000602082019050610f496000830184610ddd565b92915050565b600082825260208201905092915050565b6000610f6b82611028565b9150610f7683611028565b9250827fffffffffffffffffffffffffffffffffffffffffffffffffffffffffffffffff03821115610fab57610faa611056565b5b828201905092915050565b6000610fc182611028565b9150610fcc83611028565b925082821015610fdf57610fde611056565b5b828203905092915050565b6000610ff582611008565b9050919050565b60008115159050919050565b600073ffffffffffffffffffffffffffffffffffffffff82169050919050565b6000819050919050565b600061103d82611044565b9050919050565b600061104f82611008565b9050919050565b7f4e487b7100000000000000000000000000000000000000000000000000000000600052601160045260246000fd5b61108e81610fea565b811461109957600080fd5b50565b6110a581611028565b81146110b057600080fd5b5056fea264697066735822122097d9f0e10ab7f002707b191762faa0d187ca8a9c65ef7abb31c2cfd252dd967664736f6c63430008000033",
  "immutableReferences": {},
  "source": "// SPDX-License-Identifier: MIT\n\npragma solidity ^0.8.0;\n\nimport \"./External/Ownable.sol\";\nimport \"./External/Pausable.sol\";\nimport \"./External/ReentrancyGuard.sol\";\nimport \"./InvoiceNFT.sol\";\nimport \"./External/Counters.sol\";\n\ncontract InvoicePool is Ownable,Pausable,ReentrancyGuard {\n\n   using Counters for Counters.Counter;\n   Counters.Counter public stakedNFTs;\n\n   // NFT contract\n\n   InvoiceNFT public nft;\n\n   // amount of nfts staked by user\n\n   mapping(address => uint256) amountOfnftstaked;\n\n  // check if nft staked\n\n  mapping(uint256 => bool) isStaked;\n\n   // events\n\n   event Staked(address indexed from, uint256 indexed tokenId, uint256 time);\n\n   event unStaked(address indexed from, uint256 indexed tokenId, uint256 time);\n\n  // constructor\n\n   constructor(InvoiceNFT _nft) {\n\n       nft = _nft;\n   }\n   \n    // Stake Nft\n\n    function stakeNft(uint256 id) external whenNotPaused nonReentrant {\n\n        require (nft.ownerOf(id)== msg.sender,\"Invalid transfer\" );\n        isStaked[id] == true ;\n        IERC721(nft).transferFrom(msg.sender,address(this),id);\n        stakedNFTs.increment();\n        amountOfnftstaked[msg.sender] += 1;\n\n        emit Staked( msg.sender,id,block.timestamp);\n\n\n    }\n\n    function unstakeNFT(uint256 id) public {\n       \n        require (nft.ownerOf(id)== msg.sender,\"Invalid transfer\" );\n        IERC721(nft).transferFrom(address(this),msg.sender,id);\n        stakedNFTs.decrement();\n        amountOfnftstaked[msg.sender] -= 1;\n\n        emit unStaked( msg.sender,id,block.timestamp);\n\n    }\n\n    \n    function ValidateNFT(uint256 id) public onlyOwner {\n\n\n\n\n    }\n    \n\n    \n}\n\n    \n\n\n\n\n\n\n    \n\n\n\n\n\n    \n\n\n",
  "sourcePath": "/home/i0068/Invoice/contracts/InvoicePool.sol",
  "compiler": {
    "name": "solc",
    "version": "0.8.0+commit.c7dfd78e.Emscripten.clang"
  },
  "schemaVersion": "3.4.3",
  "updatedAt": "2022-02-10T17:53:38.144Z",
  "networkType": "ethereum",
  "devdoc": {
    "kind": "dev",
    "methods": {
      "owner()": {
        "details": "Returns the address of the current owner."
      },
      "paused()": {
        "details": "Returns true if the contract is paused, and false otherwise."
      },
      "renounceOwnership()": {
        "details": "Leaves the contract without owner. It will not be possible to call `onlyOwner` functions anymore. Can only be called by the current owner. NOTE: Renouncing ownership will leave the contract without an owner, thereby removing any functionality that is only available to the owner."
      },
      "transferOwnership(address)": {
        "details": "Transfers ownership of the contract to a new account (`newOwner`). Can only be called by the current owner."
      }
    },
    "version": 1
  },
  "userdoc": {
    "kind": "user",
    "methods": {},
    "version": 1
  }
}